{
  "contractName": "Rawmaterial",
  "abi": [
    {
      "inputs": [
        {
          "internalType": "address payable",
          "name": "_Supplier",
          "type": "address"
        },
        {
          "internalType": "string",
          "name": "_rawmaterial_name",
          "type": "string"
        },
        {
          "internalType": "uint256",
          "name": "_rawmaterial_id",
          "type": "uint256"
        },
        {
          "internalType": "uint256",
          "name": "_rawmaterial_price",
          "type": "uint256"
        },
        {
          "internalType": "uint256",
          "name": "_rawmaterial_quantity",
          "type": "uint256"
        },
        {
          "internalType": "string",
          "name": "_description",
          "type": "string"
        }
      ],
      "payable": false,
      "stateMutability": "nonpayable",
      "type": "constructor"
    },
    {
      "constant": true,
      "inputs": [],
      "name": "getRawMaterialDetails",
      "outputs": [
        {
          "internalType": "address",
          "name": "Supplier",
          "type": "address"
        },
        {
          "internalType": "string",
          "name": "Rawmaterial_name",
          "type": "string"
        },
        {
          "internalType": "uint256",
          "name": "Rawmaterial_id",
          "type": "uint256"
        },
        {
          "internalType": "uint256",
          "name": "Rawmaterial_price",
          "type": "uint256"
        },
        {
          "internalType": "uint256",
          "name": "Rawmaterial_quantity",
          "type": "uint256"
        },
        {
          "internalType": "string",
          "name": "Description",
          "type": "string"
        }
      ],
      "payable": false,
      "stateMutability": "view",
      "type": "function"
    }
  ],
  "bytecode": "0x608060405234801561001057600080fd5b5060405161062b38038061062b833981810160405260c081101561003357600080fd5b81019080805190602001909291908051604051939291908464010000000082111561005d57600080fd5b8382019150602082018581111561007357600080fd5b825186600182028301116401000000008211171561009057600080fd5b8083526020830192505050908051906020019080838360005b838110156100c45780820151818401526020810190506100a9565b50505050905090810190601f1680156100f15780820380516001836020036101000a031916815260200191505b506040526020018051906020019092919080519060200190929190805190602001909291908051604051939291908464010000000082111561013257600080fd5b8382019150602082018581111561014857600080fd5b825186600182028301116401000000008211171561016557600080fd5b8083526020830192505050908051906020019080838360005b8381101561019957808201518184015260208101905061017e565b50505050905090810190601f1680156101c65780820380516001836020036101000a031916815260200191505b50604052505050856000806101000a81548173ffffffffffffffffffffffffffffffffffffffff021916908373ffffffffffffffffffffffffffffffffffffffff160217905550846001908051906020019061022392919061025b565b50836003819055508260028190555081600481905550806005908051906020019061024f92919061025b565b50505050505050610300565b828054600181600116156101000203166002900490600052602060002090601f016020900481019282601f1061029c57805160ff19168380011785556102ca565b828001600101855582156102ca579182015b828111156102c95782518255916020019190600101906102ae565b5b5090506102d791906102db565b5090565b6102fd91905b808211156102f95760008160009055506001016102e1565b5090565b90565b61031c8061030f6000396000f3fe608060405234801561001057600080fd5b506004361061002b5760003560e01c80630c9a846814610030575b600080fd5b610038610167565b604051808773ffffffffffffffffffffffffffffffffffffffff1673ffffffffffffffffffffffffffffffffffffffff1681526020018060200186815260200185815260200184815260200180602001838103835288818151815260200191508051906020019080838360005b838110156100c05780820151818401526020810190506100a5565b50505050905090810190601f1680156100ed5780820380516001836020036101000a031916815260200191505b50838103825284818151815260200191508051906020019080838360005b8381101561012657808201518184015260208101905061010b565b50505050905090810190601f1680156101535780820380516001836020036101000a031916815260200191505b509850505050505050505060405180910390f35b60006060600080600060606000809054906101000a900473ffffffffffffffffffffffffffffffffffffffff16955060018054600181600116156101000203166002900480601f01602080910402602001604051908101604052809291908181526020018280546001816001161561010002031660029004801561022c5780601f106102015761010080835404028352916020019161022c565b820191906000526020600020905b81548152906001019060200180831161020f57829003601f168201915b5050505050945060035493506002549250600454915060058054600181600116156101000203166002900480601f0160208091040260200160405190810160405280929190818152602001828054600181600116156101000203166002900480156102d85780601f106102ad576101008083540402835291602001916102d8565b820191906000526020600020905b8154815290600101906020018083116102bb57829003601f168201915b5050505050905090919293949556fea265627a7a72315820dce84b976136c1a41fb7b0aaaa520aa4f860f647d78a4e296086f7d40c76489164736f6c63430005100032",
  "source": "pragma solidity ^0.5.16;\r\n\r\ncontract Rawmaterial\r\n{\r\n    address payable supplier;\r\n    string rawmaterial_name;\r\n    uint256 rawmaterial_price;\r\n    uint256 rawmaterial_id;\r\n    uint256 rawmaterial_quantity;\r\n    string description;\r\n    \r\n    constructor(address payable _Supplier,\r\n    string memory _rawmaterial_name,\r\n    uint256 _rawmaterial_id,\r\n    uint256 _rawmaterial_price,\r\n    uint256 _rawmaterial_quantity,\r\n    string memory _description) public\r\n    {\r\n        supplier=_Supplier;\r\n        rawmaterial_name=_rawmaterial_name;\r\n        rawmaterial_id=_rawmaterial_id;\r\n        rawmaterial_price=_rawmaterial_price;\r\n        rawmaterial_quantity=_rawmaterial_quantity;\r\n        description=_description;\r\n    }\r\n    \r\n    function getRawMaterialDetails() public view returns(address Supplier,\r\n    string memory Rawmaterial_name,\r\n    uint256 Rawmaterial_id,\r\n    uint256 Rawmaterial_price,\r\n    uint256 Rawmaterial_quantity,\r\n    string memory Description) \r\n    {\r\n        Supplier=supplier;\r\n        Rawmaterial_name=rawmaterial_name;\r\n        Rawmaterial_id=rawmaterial_id;\r\n        Rawmaterial_price=rawmaterial_price;\r\n        Rawmaterial_quantity=rawmaterial_quantity;\r\n        Description=description;        \r\n    }\r\n}",
  "sourcePath": "C:\\Users\\ADMIN\\Documents\\7__Blockchain\\bc - Pharmaceutical Supply Chain\\contracts\\Rawmaterial.sol",
  "compiler": {
    "name": "solc",
    "version": "0.5.16+commit.9c3226ce.Emscripten.clang"
  },
  "schemaVersion": "3.4.3",
  "updatedAt": "2021-12-02T06:54:11.456Z",
  "devdoc": {
    "methods": {}
  },
  "userdoc": {
    "methods": {}
  }
}