{
  "contractName": "Supplychain",
  "abi": [
    {
      "inputs": [],
      "payable": false,
      "stateMutability": "nonpayable",
      "type": "constructor"
    },
    {
      "anonymous": false,
      "inputs": [
        {
          "indexed": false,
          "internalType": "address",
          "name": "contractAddress",
          "type": "address"
        },
        {
          "indexed": false,
          "internalType": "address",
          "name": "Manufacturaddress",
          "type": "address"
        },
        {
          "indexed": false,
          "internalType": "string",
          "name": "name",
          "type": "string"
        },
        {
          "indexed": false,
          "internalType": "uint256",
          "name": "id",
          "type": "uint256"
        },
        {
          "indexed": false,
          "internalType": "uint256",
          "name": "price",
          "type": "uint256"
        },
        {
          "indexed": false,
          "internalType": "uint256",
          "name": "quantity",
          "type": "uint256"
        },
        {
          "indexed": false,
          "internalType": "string",
          "name": "description",
          "type": "string"
        }
      ],
      "name": "Medicineadded",
      "type": "event"
    },
    {
      "anonymous": false,
      "inputs": [
        {
          "indexed": false,
          "internalType": "address",
          "name": "contractAddress",
          "type": "address"
        },
        {
          "indexed": false,
          "internalType": "address",
          "name": "Supplieraddress",
          "type": "address"
        },
        {
          "indexed": false,
          "internalType": "string",
          "name": "name",
          "type": "string"
        },
        {
          "indexed": false,
          "internalType": "uint256",
          "name": "id",
          "type": "uint256"
        },
        {
          "indexed": false,
          "internalType": "uint256",
          "name": "price",
          "type": "uint256"
        },
        {
          "indexed": false,
          "internalType": "uint256",
          "name": "quantity",
          "type": "uint256"
        },
        {
          "indexed": false,
          "internalType": "string",
          "name": "description",
          "type": "string"
        }
      ],
      "name": "Rawmaterialadded",
      "type": "event"
    },
    {
      "constant": false,
      "inputs": [],
      "name": "registerSupplier",
      "outputs": [],
      "payable": false,
      "stateMutability": "nonpayable",
      "type": "function"
    },
    {
      "constant": false,
      "inputs": [],
      "name": "registerManufacturer",
      "outputs": [],
      "payable": false,
      "stateMutability": "nonpayable",
      "type": "function"
    },
    {
      "constant": false,
      "inputs": [],
      "name": "registerPharmacy",
      "outputs": [],
      "payable": false,
      "stateMutability": "nonpayable",
      "type": "function"
    },
    {
      "constant": true,
      "inputs": [
        {
          "internalType": "address",
          "name": "supplier",
          "type": "address"
        }
      ],
      "name": "checkSupplier",
      "outputs": [
        {
          "internalType": "bool",
          "name": "",
          "type": "bool"
        }
      ],
      "payable": false,
      "stateMutability": "view",
      "type": "function"
    },
    {
      "constant": true,
      "inputs": [
        {
          "internalType": "address",
          "name": "manufacturer",
          "type": "address"
        }
      ],
      "name": "checkManufacturer",
      "outputs": [
        {
          "internalType": "bool",
          "name": "",
          "type": "bool"
        }
      ],
      "payable": false,
      "stateMutability": "view",
      "type": "function"
    },
    {
      "constant": true,
      "inputs": [
        {
          "internalType": "address",
          "name": "pharma",
          "type": "address"
        }
      ],
      "name": "checkPharmacy",
      "outputs": [
        {
          "internalType": "bool",
          "name": "",
          "type": "bool"
        }
      ],
      "payable": false,
      "stateMutability": "view",
      "type": "function"
    },
    {
      "constant": false,
      "inputs": [
        {
          "internalType": "string",
          "name": "_rawmaterial_name",
          "type": "string"
        },
        {
          "internalType": "uint256",
          "name": "_rawmaterial_price",
          "type": "uint256"
        },
        {
          "internalType": "uint256",
          "name": "_rawmaterial_quantity",
          "type": "uint256"
        },
        {
          "internalType": "string",
          "name": "_description",
          "type": "string"
        }
      ],
      "name": "addRawmaterial",
      "outputs": [],
      "payable": false,
      "stateMutability": "nonpayable",
      "type": "function"
    },
    {
      "constant": false,
      "inputs": [
        {
          "internalType": "string",
          "name": "_medicine_name",
          "type": "string"
        },
        {
          "internalType": "uint256",
          "name": "_medicine_price",
          "type": "uint256"
        },
        {
          "internalType": "uint256",
          "name": "_medicine_quantity",
          "type": "uint256"
        },
        {
          "internalType": "string",
          "name": "_description",
          "type": "string"
        }
      ],
      "name": "addMedicine",
      "outputs": [],
      "payable": false,
      "stateMutability": "nonpayable",
      "type": "function"
    },
    {
      "constant": true,
      "inputs": [
        {
          "internalType": "uint256",
          "name": "id",
          "type": "uint256"
        }
      ],
      "name": "returnspecificRawmaterials",
      "outputs": [
        {
          "internalType": "contract Rawmaterial",
          "name": "",
          "type": "address"
        }
      ],
      "payable": false,
      "stateMutability": "view",
      "type": "function"
    },
    {
      "constant": true,
      "inputs": [
        {
          "internalType": "uint256",
          "name": "id",
          "type": "uint256"
        }
      ],
      "name": "returnspecificMedicines",
      "outputs": [
        {
          "internalType": "contract Medicine",
          "name": "",
          "type": "address"
        }
      ],
      "payable": false,
      "stateMutability": "view",
      "type": "function"
    },
    {
      "constant": true,
      "inputs": [],
      "name": "returnAllMedicines",
      "outputs": [
        {
          "internalType": "contract Medicine[]",
          "name": "",
          "type": "address[]"
        }
      ],
      "payable": false,
      "stateMutability": "view",
      "type": "function"
    },
    {
      "constant": true,
      "inputs": [],
      "name": "returnAllRawMaterials",
      "outputs": [
        {
          "internalType": "contract Rawmaterial[]",
          "name": "",
          "type": "address[]"
        }
      ],
      "payable": false,
      "stateMutability": "view",
      "type": "function"
    },
    {
      "constant": true,
      "inputs": [
        {
          "internalType": "uint256",
          "name": "id",
          "type": "uint256"
        }
      ],
      "name": "returnRawmaterialOwner",
      "outputs": [
        {
          "internalType": "address payable",
          "name": "",
          "type": "address"
        }
      ],
      "payable": false,
      "stateMutability": "view",
      "type": "function"
    },
    {
      "constant": true,
      "inputs": [
        {
          "internalType": "uint256",
          "name": "id",
          "type": "uint256"
        }
      ],
      "name": "returnMedicineOwner",
      "outputs": [
        {
          "internalType": "address payable",
          "name": "",
          "type": "address"
        }
      ],
      "payable": false,
      "stateMutability": "view",
      "type": "function"
    },
    {
      "constant": true,
      "inputs": [
        {
          "internalType": "uint256",
          "name": "id",
          "type": "uint256"
        }
      ],
      "name": "returnMedicinequantity",
      "outputs": [
        {
          "internalType": "uint256",
          "name": "",
          "type": "uint256"
        }
      ],
      "payable": false,
      "stateMutability": "view",
      "type": "function"
    },
    {
      "constant": true,
      "inputs": [
        {
          "internalType": "uint256",
          "name": "id",
          "type": "uint256"
        }
      ],
      "name": "returnRawmaterialquantity",
      "outputs": [
        {
          "internalType": "uint256",
          "name": "",
          "type": "uint256"
        }
      ],
      "payable": false,
      "stateMutability": "view",
      "type": "function"
    },
    {
      "constant": true,
      "inputs": [
        {
          "internalType": "uint256",
          "name": "_id",
          "type": "uint256"
        }
      ],
      "name": "returnrawmaterialprice",
      "outputs": [
        {
          "internalType": "uint256",
          "name": "",
          "type": "uint256"
        }
      ],
      "payable": false,
      "stateMutability": "view",
      "type": "function"
    },
    {
      "constant": true,
      "inputs": [
        {
          "internalType": "uint256",
          "name": "_id",
          "type": "uint256"
        }
      ],
      "name": "returnmedicineprice",
      "outputs": [
        {
          "internalType": "uint256",
          "name": "",
          "type": "uint256"
        }
      ],
      "payable": false,
      "stateMutability": "view",
      "type": "function"
    },
    {
      "constant": true,
      "inputs": [],
      "name": "returnAllSuppliers",
      "outputs": [
        {
          "internalType": "address payable[]",
          "name": "",
          "type": "address[]"
        }
      ],
      "payable": false,
      "stateMutability": "view",
      "type": "function"
    },
    {
      "constant": true,
      "inputs": [],
      "name": "returnAllManufacturers",
      "outputs": [
        {
          "internalType": "address payable[]",
          "name": "",
          "type": "address[]"
        }
      ],
      "payable": false,
      "stateMutability": "view",
      "type": "function"
    },
    {
      "constant": true,
      "inputs": [],
      "name": "returnAllPharmacies",
      "outputs": [
        {
          "internalType": "address payable[]",
          "name": "",
          "type": "address[]"
        }
      ],
      "payable": false,
      "stateMutability": "view",
      "type": "function"
    },
    {
      "constant": true,
      "inputs": [
        {
          "internalType": "address",
          "name": "supplier",
          "type": "address"
        }
      ],
      "name": "returnRawmaterialsprovidedbySupplier",
      "outputs": [
        {
          "internalType": "contract Rawmaterial[]",
          "name": "",
          "type": "address[]"
        }
      ],
      "payable": false,
      "stateMutability": "view",
      "type": "function"
    },
    {
      "constant": true,
      "inputs": [
        {
          "internalType": "address",
          "name": "manufacturer",
          "type": "address"
        }
      ],
      "name": "returnRawmaterialsSpecifictoManufacturer",
      "outputs": [
        {
          "internalType": "contract Rawmaterial[]",
          "name": "",
          "type": "address[]"
        }
      ],
      "payable": false,
      "stateMutability": "view",
      "type": "function"
    },
    {
      "constant": true,
      "inputs": [
        {
          "internalType": "address",
          "name": "manufacturer",
          "type": "address"
        }
      ],
      "name": "returnMedicinesprovidedbyManufacturer",
      "outputs": [
        {
          "internalType": "contract Medicine[]",
          "name": "",
          "type": "address[]"
        }
      ],
      "payable": false,
      "stateMutability": "view",
      "type": "function"
    },
    {
      "constant": true,
      "inputs": [
        {
          "internalType": "address",
          "name": "pharmacy",
          "type": "address"
        }
      ],
      "name": "returnMedicinesSpecifictoPharmacy",
      "outputs": [
        {
          "internalType": "contract Medicine[]",
          "name": "",
          "type": "address[]"
        }
      ],
      "payable": false,
      "stateMutability": "view",
      "type": "function"
    },
    {
      "constant": true,
      "inputs": [
        {
          "internalType": "uint256",
          "name": "id",
          "type": "uint256"
        }
      ],
      "name": "returnRawmaterialsforMedicines",
      "outputs": [
        {
          "internalType": "contract Rawmaterial[]",
          "name": "",
          "type": "address[]"
        }
      ],
      "payable": false,
      "stateMutability": "view",
      "type": "function"
    },
    {
      "constant": true,
      "inputs": [
        {
          "internalType": "address",
          "name": "_ad",
          "type": "address"
        }
      ],
      "name": "returnManufacturerstoSuppliers",
      "outputs": [
        {
          "internalType": "address[]",
          "name": "",
          "type": "address[]"
        }
      ],
      "payable": false,
      "stateMutability": "view",
      "type": "function"
    },
    {
      "constant": true,
      "inputs": [
        {
          "internalType": "uint256",
          "name": "_rawmaterial_id",
          "type": "uint256"
        }
      ],
      "name": "returnRawmaterialsOrderedbyManufacturer",
      "outputs": [
        {
          "internalType": "address[]",
          "name": "",
          "type": "address[]"
        }
      ],
      "payable": false,
      "stateMutability": "view",
      "type": "function"
    },
    {
      "constant": true,
      "inputs": [
        {
          "internalType": "uint256",
          "name": "_medicine_id",
          "type": "uint256"
        }
      ],
      "name": "returnMedicinesOrderedbyPharmacies",
      "outputs": [
        {
          "internalType": "address[]",
          "name": "",
          "type": "address[]"
        }
      ],
      "payable": false,
      "stateMutability": "view",
      "type": "function"
    },
    {
      "constant": true,
      "inputs": [
        {
          "internalType": "address",
          "name": "_manufacturerad",
          "type": "address"
        }
      ],
      "name": "returnPharmaciestoManufacuturers",
      "outputs": [
        {
          "internalType": "address[]",
          "name": "",
          "type": "address[]"
        }
      ],
      "payable": false,
      "stateMutability": "view",
      "type": "function"
    },
    {
      "constant": true,
      "inputs": [
        {
          "internalType": "address",
          "name": "_manufactad",
          "type": "address"
        },
        {
          "internalType": "uint256",
          "name": "_rawmatid",
          "type": "uint256"
        }
      ],
      "name": "returnRawmaterialQuantityinManufacturers",
      "outputs": [
        {
          "internalType": "uint256",
          "name": "",
          "type": "uint256"
        }
      ],
      "payable": false,
      "stateMutability": "view",
      "type": "function"
    },
    {
      "constant": true,
      "inputs": [
        {
          "internalType": "address",
          "name": "_Pharmacyad",
          "type": "address"
        },
        {
          "internalType": "uint256",
          "name": "_medicineid",
          "type": "uint256"
        }
      ],
      "name": "returnMedicineQuantityinPharmacy",
      "outputs": [
        {
          "internalType": "uint256",
          "name": "",
          "type": "uint256"
        }
      ],
      "payable": false,
      "stateMutability": "view",
      "type": "function"
    },
    {
      "constant": true,
      "inputs": [
        {
          "internalType": "uint256",
          "name": "_id",
          "type": "uint256"
        },
        {
          "internalType": "uint256",
          "name": "_quantity",
          "type": "uint256"
        }
      ],
      "name": "checkRawmaterialquantity",
      "outputs": [
        {
          "internalType": "bool",
          "name": "",
          "type": "bool"
        }
      ],
      "payable": false,
      "stateMutability": "view",
      "type": "function"
    },
    {
      "constant": true,
      "inputs": [
        {
          "internalType": "uint256",
          "name": "_id",
          "type": "uint256"
        },
        {
          "internalType": "uint256",
          "name": "_quantity",
          "type": "uint256"
        }
      ],
      "name": "checkMedicinequantity",
      "outputs": [
        {
          "internalType": "bool",
          "name": "",
          "type": "bool"
        }
      ],
      "payable": false,
      "stateMutability": "view",
      "type": "function"
    },
    {
      "constant": false,
      "inputs": [
        {
          "internalType": "uint256",
          "name": "_rawmaterialid",
          "type": "uint256"
        },
        {
          "internalType": "uint256",
          "name": "_quantity",
          "type": "uint256"
        }
      ],
      "name": "orderRawmaterials",
      "outputs": [
        {
          "internalType": "bool",
          "name": "",
          "type": "bool"
        }
      ],
      "payable": true,
      "stateMutability": "payable",
      "type": "function"
    },
    {
      "constant": false,
      "inputs": [
        {
          "internalType": "uint256",
          "name": "_medicineid",
          "type": "uint256"
        },
        {
          "internalType": "uint256",
          "name": "_rawmaterialid",
          "type": "uint256"
        }
      ],
      "name": "rawmaterialstoMedicine",
      "outputs": [],
      "payable": false,
      "stateMutability": "nonpayable",
      "type": "function"
    },
    {
      "constant": false,
      "inputs": [
        {
          "internalType": "uint256",
          "name": "_medicineid",
          "type": "uint256"
        },
        {
          "internalType": "uint256",
          "name": "_quantity",
          "type": "uint256"
        }
      ],
      "name": "orderMedicines",
      "outputs": [
        {
          "internalType": "bool",
          "name": "",
          "type": "bool"
        }
      ],
      "payable": true,
      "stateMutability": "payable",
      "type": "function"
    }
  ],
  "bytecode": "0x608060405260008055600060015534801561001957600080fd5b50614aed806100296000396000f3fe6080604052600436106200024e5760003560e01c80635f18439a116200013f578063d7f7de3f11620000bb578063edb73d331162000079578063edb73d331462001146578063f1be1d8a14620012c3578063f1fa7d55146200136f578063f22ac17c14620013ee578063f364c079146200144f576200024e565b8063d7f7de3f1462000ed1578063d9a128e51462000f3e578063dd3e5e7b1462000f58578063e113ec021462001004578063ea1ca2ce146200109a576200024e565b8063a534e1e31162000109578063a534e1e31462000cec578063a76da92a1462000d35578063c5d23a3d1462000db4578063c74ced1c1462000e4a578063d4fd04c71462000eb7576200024e565b80635f18439a1462000b29578063660f32471462000b7c578063700a868a1462000bcf5780637deb60f51462000c7b576200024e565b8063334f008211620001cf5780634c589c8d11620001995780634c589c8d14620009345780634e51389a14620009ca578063536a273e14620009e4578063550ce9a11462000a575780635702158c1462000ab8576200024e565b8063334f0082146200071c5780633e08655514620007c85780633e2d136614620008745780634ab142e314620008c7576200024e565b80631c3bea08116200021d5780631c3bea0814620005155780631c7f137a14620005685780632aca13e214620005d95780632e158d93146200062c5780632eea24d0146200069d576200024e565b806303b1830a14620002535780630a31412714620002a65780630cf8b1b214620003255780631b7f038e14620004a2575b600080fd5b3480156200026057600080fd5b5062000290600480360360208110156200027957600080fd5b8101908080359060200190929190505050620014c0565b6040518082815260200191505060405180910390f35b348015620002b357600080fd5b50620002e360048036036020811015620002cc57600080fd5b8101908080359060200190929190505050620014dd565b604051808273ffffffffffffffffffffffffffffffffffffffff1673ffffffffffffffffffffffffffffffffffffffff16815260200191505060405180910390f35b3480156200033257600080fd5b50620004a0600480360360808110156200034b57600080fd5b81019080803590602001906401000000008111156200036957600080fd5b8201836020820111156200037c57600080fd5b803590602001918460018302840111640100000000831117156200039f57600080fd5b91908080601f016020809104026020016040519081016040528093929190818152602001838380828437600081840152601f19601f8201169050808301925050505050505091929192908035906020019092919080359060200190929190803590602001906401000000008111156200041757600080fd5b8201836020820111156200042a57600080fd5b803590602001918460018302840111640100000000831117156200044d57600080fd5b91908080601f016020809104026020016040519081016040528093929190818152602001838380828437600081840152601f19601f8201169050808301925050505050505091929192905050506200151a565b005b348015620004af57600080fd5b50620004ff60048036036040811015620004c857600080fd5b81019080803573ffffffffffffffffffffffffffffffffffffffff1690602001909291908035906020019092919050505062001acb565b6040518082815260200191505060405180910390f35b6200054e600480360360408110156200052d57600080fd5b81019080803590602001909291908035906020019092919050505062001b26565b604051808215151515815260200191505060405180910390f35b3480156200057557600080fd5b506200058062001fc5565b6040518080602001828103825283818151815260200191508051906020019060200280838360005b83811015620005c5578082015181840152602081019050620005a8565b505050509050019250505060405180910390f35b348015620005e657600080fd5b506200061660048036036020811015620005ff57600080fd5b810190808035906020019092919050505062002055565b6040518082815260200191505060405180910390f35b3480156200063957600080fd5b506200064462002072565b6040518080602001828103825283818151815260200191508051906020019060200280838360005b83811015620006895780820151818401526020810190506200066c565b505050509050019250505060405180910390f35b348015620006aa57600080fd5b50620006da60048036036020811015620006c357600080fd5b810190808035906020019092919050505062002102565b604051808273ffffffffffffffffffffffffffffffffffffffff1673ffffffffffffffffffffffffffffffffffffffff16815260200191505060405180910390f35b3480156200072957600080fd5b506200076f600480360360208110156200074257600080fd5b81019080803573ffffffffffffffffffffffffffffffffffffffff1690602001909291905050506200213f565b6040518080602001828103825283818151815260200191508051906020019060200280838360005b83811015620007b457808201518184015260208101905062000797565b505050509050019250505060405180910390f35b348015620007d557600080fd5b506200081b60048036036020811015620007ee57600080fd5b81019080803573ffffffffffffffffffffffffffffffffffffffff1690602001909291905050506200220e565b6040518080602001828103825283818151815260200191508051906020019060200280838360005b838110156200086057808201518184015260208101905062000843565b505050509050019250505060405180910390f35b3480156200088157600080fd5b50620008b1600480360360208110156200089a57600080fd5b8101908080359060200190929190505050620022dd565b6040518082815260200191505060405180910390f35b348015620008d457600080fd5b506200091a60048036036020811015620008ed57600080fd5b81019080803573ffffffffffffffffffffffffffffffffffffffff169060200190929190505050620022fa565b604051808215151515815260200191505060405180910390f35b3480156200094157600080fd5b5062000971600480360360208110156200095a57600080fd5b810190808035906020019092919050505062002350565b6040518080602001828103825283818151815260200191508051906020019060200280838360005b83811015620009b657808201518184015260208101905062000999565b505050509050019250505060405180910390f35b348015620009d757600080fd5b50620009e2620023f3565b005b348015620009f157600080fd5b5062000a416004803603604081101562000a0a57600080fd5b81019080803573ffffffffffffffffffffffffffffffffffffffff1690602001909291908035906020019092919050505062002571565b6040518082815260200191505060405180910390f35b34801562000a6457600080fd5b5062000a9e6004803603604081101562000a7d57600080fd5b810190808035906020019092919080359060200190929190505050620025cc565b604051808215151515815260200191505060405180910390f35b34801562000ac557600080fd5b5062000ad0620025fe565b6040518080602001828103825283818151815260200191508051906020019060200280838360005b8381101562000b1557808201518184015260208101905062000af8565b505050509050019250505060405180910390f35b34801562000b3657600080fd5b5062000b666004803603602081101562000b4f57600080fd5b81019080803590602001909291905050506200268e565b6040518082815260200191505060405180910390f35b62000bb56004803603604081101562000b9457600080fd5b810190808035906020019092919080359060200190929190505050620026ab565b604051808215151515815260200191505060405180910390f35b34801562000bdc57600080fd5b5062000c226004803603602081101562000bf557600080fd5b81019080803573ffffffffffffffffffffffffffffffffffffffff16906020019092919050505062002b4a565b6040518080602001828103825283818151815260200191508051906020019060200280838360005b8381101562000c6757808201518184015260208101905062000c4a565b505050509050019250505060405180910390f35b34801562000c8857600080fd5b5062000c9362002c19565b6040518080602001828103825283818151815260200191508051906020019060200280838360005b8381101562000cd857808201518184015260208101905062000cbb565b505050509050019250505060405180910390f35b34801562000cf957600080fd5b5062000d336004803603604081101562000d1257600080fd5b81019080803590602001909291908035906020019092919050505062002ca9565b005b34801562000d4257600080fd5b5062000d726004803603602081101562000d5b57600080fd5b810190808035906020019092919050505062002f34565b604051808273ffffffffffffffffffffffffffffffffffffffff1673ffffffffffffffffffffffffffffffffffffffff16815260200191505060405180910390f35b34801562000dc157600080fd5b5062000df16004803603602081101562000dda57600080fd5b810190808035906020019092919050505062002f71565b6040518080602001828103825283818151815260200191508051906020019060200280838360005b8381101562000e3657808201518184015260208101905062000e19565b505050509050019250505060405180910390f35b34801562000e5757600080fd5b5062000e9d6004803603602081101562000e7057600080fd5b81019080803573ffffffffffffffffffffffffffffffffffffffff16906020019092919050505062003014565b604051808215151515815260200191505060405180910390f35b34801562000ec457600080fd5b5062000ecf6200306a565b005b34801562000ede57600080fd5b5062000f246004803603602081101562000ef757600080fd5b81019080803573ffffffffffffffffffffffffffffffffffffffff169060200190929190505050620031e8565b604051808215151515815260200191505060405180910390f35b34801562000f4b57600080fd5b5062000f566200323e565b005b34801562000f6557600080fd5b5062000fab6004803603602081101562000f7e57600080fd5b81019080803573ffffffffffffffffffffffffffffffffffffffff169060200190929190505050620033bc565b6040518080602001828103825283818151815260200191508051906020019060200280838360005b8381101562000ff057808201518184015260208101905062000fd3565b505050509050019250505060405180910390f35b3480156200101157600080fd5b5062001041600480360360208110156200102a57600080fd5b81019080803590602001909291905050506200348b565b6040518080602001828103825283818151815260200191508051906020019060200280838360005b838110156200108657808201518184015260208101905062001069565b505050509050019250505060405180910390f35b348015620010a757600080fd5b50620010ed60048036036020811015620010c057600080fd5b81019080803573ffffffffffffffffffffffffffffffffffffffff1690602001909291905050506200352e565b6040518080602001828103825283818151815260200191508051906020019060200280838360005b838110156200113257808201518184015260208101905062001115565b505050509050019250505060405180910390f35b3480156200115357600080fd5b50620012c1600480360360808110156200116c57600080fd5b81019080803590602001906401000000008111156200118a57600080fd5b8201836020820111156200119d57600080fd5b80359060200191846001830284011164010000000083111715620011c057600080fd5b91908080601f016020809104026020016040519081016040528093929190818152602001838380828437600081840152601f19601f8201169050808301925050505050505091929192908035906020019092919080359060200190929190803590602001906401000000008111156200123857600080fd5b8201836020820111156200124b57600080fd5b803590602001918460018302840111640100000000831117156200126e57600080fd5b91908080601f016020809104026020016040519081016040528093929190818152602001838380828437600081840152601f19601f820116905080830192505050505050509192919290505050620035fd565b005b348015620012d057600080fd5b506200131660048036036020811015620012e957600080fd5b81019080803573ffffffffffffffffffffffffffffffffffffffff16906020019092919050505062003c1d565b6040518080602001828103825283818151815260200191508051906020019060200280838360005b838110156200135b5780820151818401526020810190506200133e565b505050509050019250505060405180910390f35b3480156200137c57600080fd5b50620013ac600480360360208110156200139557600080fd5b810190808035906020019092919050505062003cec565b604051808273ffffffffffffffffffffffffffffffffffffffff1673ffffffffffffffffffffffffffffffffffffffff16815260200191505060405180910390f35b348015620013fb57600080fd5b5062001435600480360360408110156200141457600080fd5b81019080803590602001909291908035906020019092919050505062003d29565b604051808215151515815260200191505060405180910390f35b3480156200145c57600080fd5b506200146762003d5b565b6040518080602001828103825283818151815260200191508051906020019060200280838360005b83811015620014ac5780820151818401526020810190506200148f565b505050509050019250505060405180910390f35b600060096000838152602001908152602001600020549050919050565b6000600b600083815260200190815260200160002060009054906101000a900473ffffffffffffffffffffffffffffffffffffffff169050919050565b60011515600c60003373ffffffffffffffffffffffffffffffffffffffff1673ffffffffffffffffffffffffffffffffffffffff16815260200190815260200160002060009054906101000a900460ff16151514620015e1576040517f08c379a00000000000000000000000000000000000000000000000000000000081526004018080602001828103825260108152602001807f496e76616c696420537570706c6965720000000000000000000000000000000081525060200191505060405180910390fd5b6001600080828254019250508190555060003385600054868686604051620016099062003deb565b808773ffffffffffffffffffffffffffffffffffffffff1673ffffffffffffffffffffffffffffffffffffffff1681526020018060200186815260200185815260200184815260200180602001838103835288818151815260200191508051906020019080838360005b838110156200169057808201518184015260208101905062001673565b50505050905090810190601f168015620016be5780820380516001836020036101000a031916815260200191505b50838103825284818151815260200191508051906020019080838360005b83811015620016f9578082015181840152602081019050620016dc565b50505050905090810190601f168015620017275780820380516001836020036101000a031916815260200191505b5098505050505050505050604051809103906000f0801580156200174f573d6000803e3d6000fd5b5090507f08a63d4354a9a0af3d880c204b681db0c5f12e76d0e19c9c59bf01710f6436bb813387600054888888604051808873ffffffffffffffffffffffffffffffffffffffff1673ffffffffffffffffffffffffffffffffffffffff1681526020018773ffffffffffffffffffffffffffffffffffffffff1673ffffffffffffffffffffffffffffffffffffffff1681526020018060200186815260200185815260200184815260200180602001838103835288818151815260200191508051906020019080838360005b83811015620018385780820151818401526020810190506200181b565b50505050905090810190601f168015620018665780820380516001836020036101000a031916815260200191505b50838103825284818151815260200191508051906020019080838360005b83811015620018a157808201518184015260208101905062001884565b50505050905090810190601f168015620018cf5780820380516001836020036101000a031916815260200191505b50995050505050505050505060405180910390a160028190806001815401808255809150509060018203906000526020600020016000909192909190916101000a81548173ffffffffffffffffffffffffffffffffffffffff021916908373ffffffffffffffffffffffffffffffffffffffff1602179055505080600460008054815260200190815260200160002060006101000a81548173ffffffffffffffffffffffffffffffffffffffff021916908373ffffffffffffffffffffffffffffffffffffffff16021790555033600a60008054815260200190815260200160002060006101000a81548173ffffffffffffffffffffffffffffffffffffffff021916908373ffffffffffffffffffffffffffffffffffffffff1602179055508360066000805481526020019081526020016000208190555082600860008054815260200190815260200160002081905550601260003373ffffffffffffffffffffffffffffffffffffffff1673ffffffffffffffffffffffffffffffffffffffff1681526020019081526020016000208190806001815401808255809150509060018203906000526020600020016000909192909190916101000a81548173ffffffffffffffffffffffffffffffffffffffff021916908373ffffffffffffffffffffffffffffffffffffffff160217905550505050505050565b6000601b60008473ffffffffffffffffffffffffffffffffffffffff1673ffffffffffffffffffffffffffffffffffffffff168152602001908152602001600020600083815260200190815260200160002054905092915050565b600060011515600d60003373ffffffffffffffffffffffffffffffffffffffff1673ffffffffffffffffffffffffffffffffffffffff16815260200190815260200160002060009054906101000a900460ff1615151462001bd3576040517f08c379a000000000000000000000000000000000000000000000000000000000815260040180806020018281038252602b81526020018062004a8e602b913960400191505060405180910390fd5b816008600085815260200190815260200160002054101562001bf457600080fd5b60176000600a600086815260200190815260200160002060009054906101000a900473ffffffffffffffffffffffffffffffffffffffff1673ffffffffffffffffffffffffffffffffffffffff1673ffffffffffffffffffffffffffffffffffffffff1681526020019081526020016000203390806001815401808255809150509060018203906000526020600020016000909192909190916101000a81548173ffffffffffffffffffffffffffffffffffffffff021916908373ffffffffffffffffffffffffffffffffffffffff1602179055505060001515601d60003373ffffffffffffffffffffffffffffffffffffffff1673ffffffffffffffffffffffffffffffffffffffff168152602001908152602001600020600085815260200190815260200160002060009054906101000a900460ff161515141562001ec357601960008481526020019081526020016000203390806001815401808255809150509060018203906000526020600020016000909192909190916101000a81548173ffffffffffffffffffffffffffffffffffffffff021916908373ffffffffffffffffffffffffffffffffffffffff16021790555050601460003373ffffffffffffffffffffffffffffffffffffffff1673ffffffffffffffffffffffffffffffffffffffff16815260200190815260200160002062001df68462003cec565b90806001815401808255809150509060018203906000526020600020016000909192909190916101000a81548173ffffffffffffffffffffffffffffffffffffffff021916908373ffffffffffffffffffffffffffffffffffffffff160217905550506001601d60003373ffffffffffffffffffffffffffffffffffffffff1673ffffffffffffffffffffffffffffffffffffffff168152602001908152602001600020600085815260200190815260200160002060006101000a81548160ff0219169083151502179055505b81600860008581526020019081526020016000206000828254039250508190555081601b60003373ffffffffffffffffffffffffffffffffffffffff1673ffffffffffffffffffffffffffffffffffffffff168152602001908152602001600020600085815260200190815260200160002060008282540192505081905550600a600084815260200190815260200160002060009054906101000a900473ffffffffffffffffffffffffffffffffffffffff1673ffffffffffffffffffffffffffffffffffffffff166108fc349081150290604051600060405180830381858888f193505050501562001fba576001905062001fbf565b600090505b92915050565b6060600f8054806020026020016040519081016040528092919081815260200182805480156200204b57602002820191906000526020600020905b8160009054906101000a900473ffffffffffffffffffffffffffffffffffffffff1673ffffffffffffffffffffffffffffffffffffffff168152602001906001019080831162002000575b5050505050905090565b600060066000838152602001908152602001600020549050919050565b60606002805480602002602001604051908101604052809291908181526020018280548015620020f857602002820191906000526020600020905b8160009054906101000a900473ffffffffffffffffffffffffffffffffffffffff1673ffffffffffffffffffffffffffffffffffffffff1681526020019060010190808311620020ad575b5050505050905090565b60006005600083815260200190815260200160002060009054906101000a900473ffffffffffffffffffffffffffffffffffffffff169050919050565b6060601260008373ffffffffffffffffffffffffffffffffffffffff1673ffffffffffffffffffffffffffffffffffffffff1681526020019081526020016000208054806020026020016040519081016040528092919081815260200182805480156200220257602002820191906000526020600020905b8160009054906101000a900473ffffffffffffffffffffffffffffffffffffffff1673ffffffffffffffffffffffffffffffffffffffff1681526020019060010190808311620021b7575b50505050509050919050565b6060601360008373ffffffffffffffffffffffffffffffffffffffff1673ffffffffffffffffffffffffffffffffffffffff168152602001908152602001600020805480602002602001604051908101604052809291908181526020018280548015620022d157602002820191906000526020600020905b8160009054906101000a900473ffffffffffffffffffffffffffffffffffffffff1673ffffffffffffffffffffffffffffffffffffffff168152602001906001019080831162002286575b50505050509050919050565b600060076000838152602001908152602001600020549050919050565b6000600c60008373ffffffffffffffffffffffffffffffffffffffff1673ffffffffffffffffffffffffffffffffffffffff16815260200190815260200160002060009054906101000a900460ff169050919050565b606060196000838152602001908152602001600020805480602002602001604051908101604052809291908181526020018280548015620023e757602002820191906000526020600020905b8160009054906101000a900473ffffffffffffffffffffffffffffffffffffffff1673ffffffffffffffffffffffffffffffffffffffff16815260200190600101908083116200239c575b50505050509050919050565b60011515600d60003373ffffffffffffffffffffffffffffffffffffffff1673ffffffffffffffffffffffffffffffffffffffff16815260200190815260200160002060009054906101000a900460ff16151514156200245257600080fd5b60011515600c60003373ffffffffffffffffffffffffffffffffffffffff1673ffffffffffffffffffffffffffffffffffffffff16815260200190815260200160002060009054906101000a900460ff1615151415620024b157600080fd5b6001600e60003373ffffffffffffffffffffffffffffffffffffffff1673ffffffffffffffffffffffffffffffffffffffff16815260200190815260200160002060006101000a81548160ff02191690831515021790555060113390806001815401808255809150509060018203906000526020600020016000909192909190916101000a81548173ffffffffffffffffffffffffffffffffffffffff021916908373ffffffffffffffffffffffffffffffffffffffff16021790555050565b6000601c60008473ffffffffffffffffffffffffffffffffffffffff1673ffffffffffffffffffffffffffffffffffffffff168152602001908152602001600020600083815260200190815260200160002054905092915050565b600081600960008581526020019081526020016000205410620025f35760019050620025f8565b600090505b92915050565b606060038054806020026020016040519081016040528092919081815260200182805480156200268457602002820191906000526020600020905b8160009054906101000a900473ffffffffffffffffffffffffffffffffffffffff1673ffffffffffffffffffffffffffffffffffffffff168152602001906001019080831162002639575b5050505050905090565b600060086000838152602001908152602001600020549050919050565b600060011515600e60003373ffffffffffffffffffffffffffffffffffffffff1673ffffffffffffffffffffffffffffffffffffffff16815260200190815260200160002060009054906101000a900460ff1615151462002758576040517f08c379a000000000000000000000000000000000000000000000000000000000815260040180806020018281038252603081526020018062004a5e6030913960400191505060405180910390fd5b81600960008581526020019081526020016000205410156200277957600080fd5b60186000600b600086815260200190815260200160002060009054906101000a900473ffffffffffffffffffffffffffffffffffffffff1673ffffffffffffffffffffffffffffffffffffffff1673ffffffffffffffffffffffffffffffffffffffff1681526020019081526020016000203390806001815401808255809150509060018203906000526020600020016000909192909190916101000a81548173ffffffffffffffffffffffffffffffffffffffff021916908373ffffffffffffffffffffffffffffffffffffffff1602179055505060001515601e60003373ffffffffffffffffffffffffffffffffffffffff1673ffffffffffffffffffffffffffffffffffffffff168152602001908152602001600020600085815260200190815260200160002060009054906101000a900460ff161515141562002a4857601a60008481526020019081526020016000203390806001815401808255809150509060018203906000526020600020016000909192909190916101000a81548173ffffffffffffffffffffffffffffffffffffffff021916908373ffffffffffffffffffffffffffffffffffffffff16021790555050601560003373ffffffffffffffffffffffffffffffffffffffff1673ffffffffffffffffffffffffffffffffffffffff1681526020019081526020016000206200297b8462002102565b90806001815401808255809150509060018203906000526020600020016000909192909190916101000a81548173ffffffffffffffffffffffffffffffffffffffff021916908373ffffffffffffffffffffffffffffffffffffffff160217905550506001601e60003373ffffffffffffffffffffffffffffffffffffffff1673ffffffffffffffffffffffffffffffffffffffff168152602001908152602001600020600085815260200190815260200160002060006101000a81548160ff0219169083151502179055505b81600960008581526020019081526020016000206000828254039250508190555081601c60003373ffffffffffffffffffffffffffffffffffffffff1673ffffffffffffffffffffffffffffffffffffffff168152602001908152602001600020600085815260200190815260200160002060008282540192505081905550600b600084815260200190815260200160002060009054906101000a900473ffffffffffffffffffffffffffffffffffffffff1673ffffffffffffffffffffffffffffffffffffffff166108fc349081150290604051600060405180830381858888f193505050501562002b3f576001905062002b44565b600090505b92915050565b6060601860008373ffffffffffffffffffffffffffffffffffffffff1673ffffffffffffffffffffffffffffffffffffffff16815260200190815260200160002080548060200260200160405190810160405280929190818152602001828054801562002c0d57602002820191906000526020600020905b8160009054906101000a900473ffffffffffffffffffffffffffffffffffffffff1673ffffffffffffffffffffffffffffffffffffffff168152602001906001019080831162002bc2575b50505050509050919050565b6060601080548060200260200160405190810160405280929190818152602001828054801562002c9f57602002820191906000526020600020905b8160009054906101000a900473ffffffffffffffffffffffffffffffffffffffff1673ffffffffffffffffffffffffffffffffffffffff168152602001906001019080831162002c54575b5050505050905090565b60011515600d60003373ffffffffffffffffffffffffffffffffffffffff1673ffffffffffffffffffffffffffffffffffffffff16815260200190815260200160002060009054906101000a900460ff1615151462002d54576040517f08c379a000000000000000000000000000000000000000000000000000000000815260040180806020018281038252602b81526020018062004a8e602b913960400191505060405180910390fd5b60011515601d60003373ffffffffffffffffffffffffffffffffffffffff1673ffffffffffffffffffffffffffffffffffffffff168152602001908152602001600020600083815260200190815260200160002060009054906101000a900460ff1615151462002dc357600080fd5b60011515601f60003373ffffffffffffffffffffffffffffffffffffffff1673ffffffffffffffffffffffffffffffffffffffff168152602001908152602001600020600084815260200190815260200160002060009054906101000a900460ff1615151462002e3257600080fd5b6000151560206000848152602001908152602001600020600083815260200190815260200160002060009054906101000a900460ff161515141562002f30576016600083815260200190815260200160002062002e8f8262003cec565b90806001815401808255809150509060018203906000526020600020016000909192909190916101000a81548173ffffffffffffffffffffffffffffffffffffffff021916908373ffffffffffffffffffffffffffffffffffffffff16021790555050600160206000848152602001908152602001600020600083815260200190815260200160002060006101000a81548160ff0219169083151502179055505b5050565b6000600a600083815260200190815260200160002060009054906101000a900473ffffffffffffffffffffffffffffffffffffffff169050919050565b6060601660008381526020019081526020016000208054806020026020016040519081016040528092919081815260200182805480156200300857602002820191906000526020600020905b8160009054906101000a900473ffffffffffffffffffffffffffffffffffffffff1673ffffffffffffffffffffffffffffffffffffffff168152602001906001019080831162002fbd575b50505050509050919050565b6000600d60008373ffffffffffffffffffffffffffffffffffffffff1673ffffffffffffffffffffffffffffffffffffffff16815260200190815260200160002060009054906101000a900460ff169050919050565b60011515600e60003373ffffffffffffffffffffffffffffffffffffffff1673ffffffffffffffffffffffffffffffffffffffff16815260200190815260200160002060009054906101000a900460ff1615151415620030c957600080fd5b60011515600c60003373ffffffffffffffffffffffffffffffffffffffff1673ffffffffffffffffffffffffffffffffffffffff16815260200190815260200160002060009054906101000a900460ff16151514156200312857600080fd5b6001600d60003373ffffffffffffffffffffffffffffffffffffffff1673ffffffffffffffffffffffffffffffffffffffff16815260200190815260200160002060006101000a81548160ff02191690831515021790555060103390806001815401808255809150509060018203906000526020600020016000909192909190916101000a81548173ffffffffffffffffffffffffffffffffffffffff021916908373ffffffffffffffffffffffffffffffffffffffff16021790555050565b6000600e60008373ffffffffffffffffffffffffffffffffffffffff1673ffffffffffffffffffffffffffffffffffffffff16815260200190815260200160002060009054906101000a900460ff169050919050565b60011515600e60003373ffffffffffffffffffffffffffffffffffffffff1673ffffffffffffffffffffffffffffffffffffffff16815260200190815260200160002060009054906101000a900460ff16151514156200329d57600080fd5b60011515600d60003373ffffffffffffffffffffffffffffffffffffffff1673ffffffffffffffffffffffffffffffffffffffff16815260200190815260200160002060009054906101000a900460ff1615151415620032fc57600080fd5b6001600c60003373ffffffffffffffffffffffffffffffffffffffff1673ffffffffffffffffffffffffffffffffffffffff16815260200190815260200160002060006101000a81548160ff021916908315150217905550600f3390806001815401808255809150509060018203906000526020600020016000909192909190916101000a81548173ffffffffffffffffffffffffffffffffffffffff021916908373ffffffffffffffffffffffffffffffffffffffff16021790555050565b6060601760008373ffffffffffffffffffffffffffffffffffffffff1673ffffffffffffffffffffffffffffffffffffffff1681526020019081526020016000208054806020026020016040519081016040528092919081815260200182805480156200347f57602002820191906000526020600020905b8160009054906101000a900473ffffffffffffffffffffffffffffffffffffffff1673ffffffffffffffffffffffffffffffffffffffff168152602001906001019080831162003434575b50505050509050919050565b6060601a60008381526020019081526020016000208054806020026020016040519081016040528092919081815260200182805480156200352257602002820191906000526020600020905b8160009054906101000a900473ffffffffffffffffffffffffffffffffffffffff1673ffffffffffffffffffffffffffffffffffffffff1681526020019060010190808311620034d7575b50505050509050919050565b6060601560008373ffffffffffffffffffffffffffffffffffffffff1673ffffffffffffffffffffffffffffffffffffffff168152602001908152602001600020805480602002602001604051908101604052809291908181526020018280548015620035f157602002820191906000526020600020905b8160009054906101000a900473ffffffffffffffffffffffffffffffffffffffff1673ffffffffffffffffffffffffffffffffffffffff1681526020019060010190808311620035a6575b50505050509050919050565b60011515600d60003373ffffffffffffffffffffffffffffffffffffffff1673ffffffffffffffffffffffffffffffffffffffff16815260200190815260200160002060009054906101000a900460ff16151514620036c4576040517f08c379a00000000000000000000000000000000000000000000000000000000081526004018080602001828103825260148152602001807f496e76616c6964204d616e75666163747572657200000000000000000000000081525060200191505060405180910390fd5b6001806000828254019250508190555060003385600154868686604051620036ec9062003df9565b808773ffffffffffffffffffffffffffffffffffffffff1673ffffffffffffffffffffffffffffffffffffffff1681526020018060200186815260200185815260200184815260200180602001838103835288818151815260200191508051906020019080838360005b838110156200377357808201518184015260208101905062003756565b50505050905090810190601f168015620037a15780820380516001836020036101000a031916815260200191505b50838103825284818151815260200191508051906020019080838360005b83811015620037dc578082015181840152602081019050620037bf565b50505050905090810190601f1680156200380a5780820380516001836020036101000a031916815260200191505b5098505050505050505050604051809103906000f08015801562003832573d6000803e3d6000fd5b5090507f0bd8ad20a3c1bd32f28a47f5d0449db142ed20d323c2bbbc7d0942ec5eb0ce9f813387600154888888604051808873ffffffffffffffffffffffffffffffffffffffff1673ffffffffffffffffffffffffffffffffffffffff1681526020018773ffffffffffffffffffffffffffffffffffffffff1673ffffffffffffffffffffffffffffffffffffffff1681526020018060200186815260200185815260200184815260200180602001838103835288818151815260200191508051906020019080838360005b838110156200391b578082015181840152602081019050620038fe565b50505050905090810190601f168015620039495780820380516001836020036101000a031916815260200191505b50838103825284818151815260200191508051906020019080838360005b838110156200398457808201518184015260208101905062003967565b50505050905090810190601f168015620039b25780820380516001836020036101000a031916815260200191505b50995050505050505050505060405180910390a160038190806001815401808255809150509060018203906000526020600020016000909192909190916101000a81548173ffffffffffffffffffffffffffffffffffffffff021916908373ffffffffffffffffffffffffffffffffffffffff160217905550508060056000600154815260200190815260200160002060006101000a81548173ffffffffffffffffffffffffffffffffffffffff021916908373ffffffffffffffffffffffffffffffffffffffff16021790555033600b6000600154815260200190815260200160002060006101000a81548173ffffffffffffffffffffffffffffffffffffffff021916908373ffffffffffffffffffffffffffffffffffffffff16021790555083600760006001548152602001908152602001600020819055508260096000600154815260200190815260200160002081905550601360003373ffffffffffffffffffffffffffffffffffffffff1673ffffffffffffffffffffffffffffffffffffffff1681526020019081526020016000208190806001815401808255809150509060018203906000526020600020016000909192909190916101000a81548173ffffffffffffffffffffffffffffffffffffffff021916908373ffffffffffffffffffffffffffffffffffffffff160217905550506001601f60003373ffffffffffffffffffffffffffffffffffffffff1673ffffffffffffffffffffffffffffffffffffffff1681526020019081526020016000206000600154815260200190815260200160002060006101000a81548160ff0219169083151502179055505050505050565b6060601460008373ffffffffffffffffffffffffffffffffffffffff1673ffffffffffffffffffffffffffffffffffffffff16815260200190815260200160002080548060200260200160405190810160405280929190818152602001828054801562003ce057602002820191906000526020600020905b8160009054906101000a900473ffffffffffffffffffffffffffffffffffffffff1673ffffffffffffffffffffffffffffffffffffffff168152602001906001019080831162003c95575b50505050509050919050565b60006004600083815260200190815260200160002060009054906101000a900473ffffffffffffffffffffffffffffffffffffffff169050919050565b60008160086000858152602001908152602001600020541062003d50576001905062003d55565b600090505b92915050565b6060601180548060200260200160405190810160405280929190818152602001828054801562003de157602002820191906000526020600020905b8160009054906101000a900473ffffffffffffffffffffffffffffffffffffffff1673ffffffffffffffffffffffffffffffffffffffff168152602001906001019080831162003d96575b5050505050905090565b61062b8062003e0883390190565b61062b80620044338339019056fe608060405234801561001057600080fd5b5060405161062b38038061062b833981810160405260c081101561003357600080fd5b81019080805190602001909291908051604051939291908464010000000082111561005d57600080fd5b8382019150602082018581111561007357600080fd5b825186600182028301116401000000008211171561009057600080fd5b8083526020830192505050908051906020019080838360005b838110156100c45780820151818401526020810190506100a9565b50505050905090810190601f1680156100f15780820380516001836020036101000a031916815260200191505b506040526020018051906020019092919080519060200190929190805190602001909291908051604051939291908464010000000082111561013257600080fd5b8382019150602082018581111561014857600080fd5b825186600182028301116401000000008211171561016557600080fd5b8083526020830192505050908051906020019080838360005b8381101561019957808201518184015260208101905061017e565b50505050905090810190601f1680156101c65780820380516001836020036101000a031916815260200191505b50604052505050856000806101000a81548173ffffffffffffffffffffffffffffffffffffffff021916908373ffffffffffffffffffffffffffffffffffffffff160217905550846001908051906020019061022392919061025b565b50836003819055508260028190555081600481905550806005908051906020019061024f92919061025b565b50505050505050610300565b828054600181600116156101000203166002900490600052602060002090601f016020900481019282601f1061029c57805160ff19168380011785556102ca565b828001600101855582156102ca579182015b828111156102c95782518255916020019190600101906102ae565b5b5090506102d791906102db565b5090565b6102fd91905b808211156102f95760008160009055506001016102e1565b5090565b90565b61031c8061030f6000396000f3fe608060405234801561001057600080fd5b506004361061002b5760003560e01c80630c9a846814610030575b600080fd5b610038610167565b604051808773ffffffffffffffffffffffffffffffffffffffff1673ffffffffffffffffffffffffffffffffffffffff1681526020018060200186815260200185815260200184815260200180602001838103835288818151815260200191508051906020019080838360005b838110156100c05780820151818401526020810190506100a5565b50505050905090810190601f1680156100ed5780820380516001836020036101000a031916815260200191505b50838103825284818151815260200191508051906020019080838360005b8381101561012657808201518184015260208101905061010b565b50505050905090810190601f1680156101535780820380516001836020036101000a031916815260200191505b509850505050505050505060405180910390f35b60006060600080600060606000809054906101000a900473ffffffffffffffffffffffffffffffffffffffff16955060018054600181600116156101000203166002900480601f01602080910402602001604051908101604052809291908181526020018280546001816001161561010002031660029004801561022c5780601f106102015761010080835404028352916020019161022c565b820191906000526020600020905b81548152906001019060200180831161020f57829003601f168201915b5050505050945060035493506002549250600454915060058054600181600116156101000203166002900480601f0160208091040260200160405190810160405280929190818152602001828054600181600116156101000203166002900480156102d85780601f106102ad576101008083540402835291602001916102d8565b820191906000526020600020905b8154815290600101906020018083116102bb57829003601f168201915b5050505050905090919293949556fea265627a7a72315820dce84b976136c1a41fb7b0aaaa520aa4f860f647d78a4e296086f7d40c76489164736f6c63430005100032608060405234801561001057600080fd5b5060405161062b38038061062b833981810160405260c081101561003357600080fd5b81019080805190602001909291908051604051939291908464010000000082111561005d57600080fd5b8382019150602082018581111561007357600080fd5b825186600182028301116401000000008211171561009057600080fd5b8083526020830192505050908051906020019080838360005b838110156100c45780820151818401526020810190506100a9565b50505050905090810190601f1680156100f15780820380516001836020036101000a031916815260200191505b506040526020018051906020019092919080519060200190929190805190602001909291908051604051939291908464010000000082111561013257600080fd5b8382019150602082018581111561014857600080fd5b825186600182028301116401000000008211171561016557600080fd5b8083526020830192505050908051906020019080838360005b8381101561019957808201518184015260208101905061017e565b50505050905090810190601f1680156101c65780820380516001836020036101000a031916815260200191505b50604052505050856000806101000a81548173ffffffffffffffffffffffffffffffffffffffff021916908373ffffffffffffffffffffffffffffffffffffffff160217905550846001908051906020019061022392919061025b565b50836003819055508260028190555081600481905550806005908051906020019061024f92919061025b565b50505050505050610300565b828054600181600116156101000203166002900490600052602060002090601f016020900481019282601f1061029c57805160ff19168380011785556102ca565b828001600101855582156102ca579182015b828111156102c95782518255916020019190600101906102ae565b5b5090506102d791906102db565b5090565b6102fd91905b808211156102f95760008160009055506001016102e1565b5090565b90565b61031c8061030f6000396000f3fe608060405234801561001057600080fd5b506004361061002b5760003560e01c80631dd9f50b14610030575b600080fd5b610038610167565b604051808773ffffffffffffffffffffffffffffffffffffffff1673ffffffffffffffffffffffffffffffffffffffff1681526020018060200186815260200185815260200184815260200180602001838103835288818151815260200191508051906020019080838360005b838110156100c05780820151818401526020810190506100a5565b50505050905090810190601f1680156100ed5780820380516001836020036101000a031916815260200191505b50838103825284818151815260200191508051906020019080838360005b8381101561012657808201518184015260208101905061010b565b50505050905090810190601f1680156101535780820380516001836020036101000a031916815260200191505b509850505050505050505060405180910390f35b60006060600080600060606000809054906101000a900473ffffffffffffffffffffffffffffffffffffffff16955060018054600181600116156101000203166002900480601f01602080910402602001604051908101604052809291908181526020018280546001816001161561010002031660029004801561022c5780601f106102015761010080835404028352916020019161022c565b820191906000526020600020905b81548152906001019060200180831161020f57829003601f168201915b5050505050945060035493506002549250600454915060058054600181600116156101000203166002900480601f0160208091040260200160405190810160405280929190818152602001828054600181600116156101000203166002900480156102d85780601f106102ad576101008083540402835291602001916102d8565b820191906000526020600020905b8154815290600101906020018083116102bb57829003601f168201915b5050505050905090919293949556fea265627a7a7231582011b1c85b6e5c6b69e579305aaedff2d71722d9817f529aa95fb23cfa53f4313f64736f6c634300051000324f6e6c79207065726d697474656420506861726d6163792063616e2061636365737320746869732066756e6374696f6e4f6e6c79204d616e756661637475726572732063616e2061636365737320746869732066756e6374696f6ea265627a7a723158204edeb273ac9db446f5e63fb0d4d71f2eac2959d1b1b87d4ad79c0ad8cf9a53bc64736f6c63430005100032",
  "source": "pragma solidity ^0.5.16;\r\n\r\nimport \"./Rawmaterial.sol\";\r\nimport \"./Medicine.sol\";\r\ncontract Supplychain\r\n{\r\n    uint256 private rcount = 0;\r\n    uint256 private mcount = 0;\r\n    Rawmaterial[] private rawmaterials;\r\n    Medicine[] private medicines;\r\n    mapping(uint256=>Rawmaterial) rawmaterialdetails;\r\n    mapping(uint256=>Medicine) medicinedetails;\r\n\r\n    mapping(uint256=>uint256) rawmaterialprice;\r\n    mapping(uint256=>uint256) medicineprice;\r\n    mapping(uint256=>uint256) rawmaterialquantity;\r\n    mapping(uint256=>uint256) medicinequantity;\r\n    mapping(uint256=>address payable) PaySupplier;\r\n    mapping(uint256=>address payable) PayManufacturer;\r\n\r\n    mapping (address => bool) Supplieraddresses;\r\n    mapping (address => bool) Manufactureraddresses;\r\n    mapping (address => bool) Pharmacyaddresses;\r\n    address payable [] Supplieraddress;\r\n    address payable [] Manufactureraddress;\r\n    address payable [] Pharmacyaddress;\r\n\r\n    mapping(address=>Rawmaterial[]) SupplierSpecificRawmaterials;\r\n    mapping(address=>Medicine[]) ManufacturerSpecificMedicines;\r\n    mapping(address=>Rawmaterial[]) RawmaterialSpecifictoManufacturer;\r\n    mapping(address=>Medicine[]) MedicineSpecifictoPharmacy;\r\n    \r\n    mapping(uint256=> Rawmaterial[]) RawmaterialsforMedicine;\r\n    mapping(address=>address[]) ManufacturerstoSuppliers;\r\n    mapping(address=>address[]) PharmaciestoManufacturers;\r\n\r\n    mapping(uint256=>address[]) RawmaterialorderedbyManufacturers;\r\n    mapping(uint256=>address[]) MedicineorderedbyPharmacies;\r\n    mapping(address=> mapping(uint256=>uint256)) RawmaterialQuantityinManufacturer;\r\n    mapping(address=> mapping(uint256=>uint256)) MedicineQuantityinPharmacy;\r\n    mapping(address=>mapping(uint=>bool)) CheckDuplicatesinRawmaterials;\r\n    mapping(address=>mapping(uint=>bool)) CheckDuplicatesinMedicines;\r\n    mapping(address=>mapping(uint=>bool)) CheckMedicines;\r\n    mapping(uint=>mapping(uint=>bool)) CheckduplicatesinRawmaterialstoMedicines;\r\n\r\n    constructor() public{}\r\n/******/    \r\n    function registerSupplier()external\r\n    {\r\n        require(Pharmacyaddresses[msg.sender]!=true);\r\n        require(Manufactureraddresses[msg.sender]!=true);\r\n        Supplieraddresses[msg.sender]=true;\r\n        Supplieraddress.push(msg.sender);\r\n    }\r\n    \r\n    function registerManufacturer()external\r\n    { \r\n        require(Pharmacyaddresses[msg.sender]!=true);\r\n        require(Supplieraddresses[msg.sender]!=true);\r\n        Manufactureraddresses[msg.sender]=true;\r\n        Manufactureraddress.push(msg.sender);\r\n    }\r\n    \r\n    function registerPharmacy()external\r\n    {\r\n        require(Manufactureraddresses[msg.sender]!=true);\r\n        require(Supplieraddresses[msg.sender]!=true);\r\n        Pharmacyaddresses[msg.sender]=true;\r\n        Pharmacyaddress.push(msg.sender);\r\n    }\r\n    \r\n    function checkSupplier(address supplier) external view returns(bool)\r\n    {\r\n        return Supplieraddresses[supplier];\r\n    }\r\n    \r\n    function checkManufacturer(address manufacturer) external view returns(bool)\r\n    {\r\n        return Manufactureraddresses[manufacturer];\r\n    }\r\n    \r\n    function checkPharmacy(address pharma) external view returns(bool)\r\n    {\r\n        return Pharmacyaddresses[pharma];\r\n    }\r\n/******/    \r\n    event Rawmaterialadded(address contractAddress,address Supplieraddress,string name,uint256 id,uint256 price,uint256 quantity,string description);\r\n    \r\n    function addRawmaterial(\r\n        string memory _rawmaterial_name,\r\n        uint256 _rawmaterial_price,\r\n        uint256 _rawmaterial_quantity,\r\n        string memory _description\r\n    )public\r\n    {\r\n        require(Supplieraddresses[msg.sender]==true,\"Invalid Supplier\");\r\n        rcount += 1;\r\n        Rawmaterial _rawmaterial= new Rawmaterial(msg.sender,_rawmaterial_name,rcount,_rawmaterial_price,_rawmaterial_quantity,_description);\r\n        emit Rawmaterialadded(address(_rawmaterial),msg.sender,_rawmaterial_name,rcount,_rawmaterial_price,_rawmaterial_quantity,_description);\r\n        rawmaterials.push(_rawmaterial);\r\n        rawmaterialdetails[rcount]=_rawmaterial;\r\n        PaySupplier[rcount]=msg.sender;\r\n        rawmaterialprice[rcount]=_rawmaterial_price;\r\n        rawmaterialquantity[rcount]=_rawmaterial_quantity;\r\n        SupplierSpecificRawmaterials[msg.sender].push(_rawmaterial);\r\n    }\r\n    \r\n    event Medicineadded(address contractAddress,address Manufacturaddress,string name,uint256 id,uint256 price,uint256 quantity,string description);\r\n    \r\n    function addMedicine(\r\n        string memory _medicine_name,\r\n        uint256 _medicine_price,\r\n        uint256 _medicine_quantity,\r\n        string memory _description\r\n    ) public\r\n    {\r\n        require(Manufactureraddresses[msg.sender]==true,\"Invalid Manufacturer\");\r\n        mcount += 1;\r\n        Medicine _medicine=new Medicine(msg.sender,_medicine_name,mcount,_medicine_price,_medicine_quantity,_description);\r\n        emit Medicineadded(address(_medicine),msg.sender,_medicine_name,mcount,_medicine_price,_medicine_quantity,_description);\r\n        medicines.push(_medicine);\r\n        medicinedetails[mcount]=_medicine;\r\n        PayManufacturer[mcount]=msg.sender;\r\n        medicineprice[mcount]=_medicine_price;\r\n        medicinequantity[mcount]=_medicine_quantity;\r\n        ManufacturerSpecificMedicines[msg.sender].push(_medicine);\r\n        CheckMedicines[msg.sender][mcount]=true;\r\n    }\r\n/******/\r\n    function returnspecificRawmaterials(uint256 id) public view returns(Rawmaterial)\r\n    {\r\n        return rawmaterialdetails[id];\r\n    }\r\n\r\n    function returnspecificMedicines(uint256 id) public view returns(Medicine)\r\n    {\r\n        return medicinedetails[id];\r\n    }\r\n\r\n    function returnAllMedicines() external view returns(Medicine[] memory)\r\n    {\r\n        return medicines;\r\n    }\r\n\r\n    function returnAllRawMaterials() external view returns(Rawmaterial[] memory)\r\n    {\r\n        return rawmaterials;\r\n    }\r\n\r\n/******/   \r\n    \r\n    function returnRawmaterialOwner(uint256 id) external view returns(address payable)\r\n    {\r\n        return PaySupplier[id];\r\n    }\r\n    \r\n    function returnMedicineOwner(uint256 id) external view returns(address payable)\r\n    {\r\n        return PayManufacturer[id];\r\n    }\r\n\r\n    function returnMedicinequantity(uint256 id) external view returns(uint256)\r\n    {\r\n        return medicinequantity[id];\r\n    }\r\n    \r\n    function returnRawmaterialquantity(uint256 id) external view returns(uint256)\r\n    {\r\n        return rawmaterialquantity[id];\r\n    }\r\n    \r\n    function returnrawmaterialprice(uint256 _id) public view returns(uint256)\r\n    {\r\n        return rawmaterialprice[_id];\r\n    }\r\n    \r\n    function returnmedicineprice(uint256 _id) public view returns(uint256)\r\n    {\r\n        return medicineprice[_id];\r\n    }\r\n\r\n/******/  \r\n    function returnAllSuppliers() external view returns(address payable[] memory)\r\n    {\r\n        return Supplieraddress;\r\n    }\r\n\r\n    function returnAllManufacturers() external view returns(address payable[] memory)\r\n    {\r\n        return Manufactureraddress;\r\n    }\r\n\r\n    function returnAllPharmacies() external view returns(address payable[] memory)\r\n    {\r\n        return Pharmacyaddress;\r\n    }\r\n/******/ \r\n    \r\n    function returnRawmaterialsprovidedbySupplier(address supplier) public view returns(Rawmaterial[] memory)\r\n    {\r\n        return SupplierSpecificRawmaterials[supplier];\r\n    }\r\n\r\n    function returnRawmaterialsSpecifictoManufacturer(address manufacturer) public view returns(Rawmaterial[] memory)\r\n    {\r\n        return RawmaterialSpecifictoManufacturer[manufacturer];\r\n    }\r\n\r\n    function returnMedicinesprovidedbyManufacturer(address manufacturer) public view returns(Medicine[] memory)\r\n    {\r\n        return ManufacturerSpecificMedicines[manufacturer];\r\n    }\r\n\r\n    function returnMedicinesSpecifictoPharmacy(address pharmacy) public view returns(Medicine[] memory)\r\n    {\r\n        return MedicineSpecifictoPharmacy[pharmacy];\r\n    }\r\n\r\n\r\n/******/  \r\n\r\n    function returnRawmaterialsforMedicines(uint256 id) external view returns(Rawmaterial[] memory)\r\n    {\r\n        return RawmaterialsforMedicine[id];\r\n    }\r\n\r\n    function returnManufacturerstoSuppliers(address _ad) public view returns(address[] memory)\r\n    {\r\n        return ManufacturerstoSuppliers[_ad];\r\n    }\r\n    function returnRawmaterialsOrderedbyManufacturer(uint256 _rawmaterial_id) public view returns(address [] memory)\r\n    {\r\n        return RawmaterialorderedbyManufacturers[_rawmaterial_id];\r\n    }\r\n\r\n    function returnMedicinesOrderedbyPharmacies(uint256 _medicine_id) public view returns(address [] memory)\r\n    {\r\n        return MedicineorderedbyPharmacies[_medicine_id];\r\n    }\r\n\r\n    function returnPharmaciestoManufacuturers(address _manufacturerad) public view returns(address[] memory)\r\n    {\r\n        return PharmaciestoManufacturers[_manufacturerad];\r\n    }\r\n    function returnRawmaterialQuantityinManufacturers(address _manufactad, uint256 _rawmatid)public view returns(uint256)\r\n    {\r\n        return RawmaterialQuantityinManufacturer[_manufactad][_rawmatid];\r\n    }\r\n\r\n    function returnMedicineQuantityinPharmacy(address _Pharmacyad, uint256 _medicineid)public view returns(uint256)\r\n    {\r\n        return MedicineQuantityinPharmacy[_Pharmacyad][_medicineid];\r\n    }\r\n    \r\n    function checkRawmaterialquantity(uint256 _id,uint256 _quantity) public view returns(bool)\r\n    {\r\n        if(rawmaterialquantity[_id]>=_quantity)\r\n        {\r\n            return true;\r\n        }\r\n        else\r\n            return false;  \r\n    }\r\n    \r\n    function checkMedicinequantity(uint256 _id,uint256 _quantity) public view returns(bool)\r\n    {\r\n        if(medicinequantity[_id]>=_quantity)\r\n        {\r\n            return true;\r\n        }\r\n        else\r\n            return false;\r\n    }\r\n/******/\r\n    function orderRawmaterials(uint256 _rawmaterialid,uint256 _quantity) public payable returns(bool)\r\n    {\r\n        require(Manufactureraddresses[msg.sender]==true,\"Only Manufacturers can access this function\");\r\n        require(rawmaterialquantity[_rawmaterialid]>=_quantity);\r\n        ManufacturerstoSuppliers[PaySupplier[_rawmaterialid]].push(msg.sender);\r\n        if(CheckDuplicatesinRawmaterials[msg.sender][_rawmaterialid]==false)\r\n        {\r\n            RawmaterialorderedbyManufacturers[_rawmaterialid].push(msg.sender);\r\n            RawmaterialSpecifictoManufacturer[msg.sender].push(returnspecificRawmaterials(_rawmaterialid));\r\n            CheckDuplicatesinRawmaterials[msg.sender][_rawmaterialid]=true;\r\n        }\r\n        rawmaterialquantity[_rawmaterialid]-=_quantity;\r\n        RawmaterialQuantityinManufacturer[msg.sender][_rawmaterialid]+=_quantity;\r\n        if(PaySupplier[_rawmaterialid].send(msg.value))\r\n            return true;\r\n        return false;\r\n    }\r\n\r\n    function rawmaterialstoMedicine(uint256 _medicineid,uint256 _rawmaterialid) public\r\n    {\r\n        require(Manufactureraddresses[msg.sender]==true,\"Only Manufacturers can access this function\");\r\n        require(CheckDuplicatesinRawmaterials[msg.sender][_rawmaterialid]==true);\r\n        require(CheckMedicines[msg.sender][_medicineid]==true);\r\n        if(CheckduplicatesinRawmaterialstoMedicines[_medicineid][_rawmaterialid]==false)\r\n        {\r\n            RawmaterialsforMedicine[_medicineid].push(returnspecificRawmaterials(_rawmaterialid));\r\n            CheckduplicatesinRawmaterialstoMedicines[_medicineid][_rawmaterialid]=true;\r\n        }\r\n        \r\n    }\r\n    \r\n    function orderMedicines(uint256 _medicineid,uint256 _quantity) public payable returns(bool)\r\n    {\r\n        require(Pharmacyaddresses[msg.sender]==true,\"Only permitted Pharmacy can access this function\");\r\n        require(medicinequantity[_medicineid]>=_quantity);\r\n        PharmaciestoManufacturers[PayManufacturer[_medicineid]].push(msg.sender);\r\n        if(CheckDuplicatesinMedicines[msg.sender][_medicineid]==false)\r\n        {\r\n            MedicineorderedbyPharmacies[_medicineid].push(msg.sender);\r\n            MedicineSpecifictoPharmacy[msg.sender].push(returnspecificMedicines(_medicineid));\r\n            CheckDuplicatesinMedicines[msg.sender][_medicineid]=true;\r\n        }\r\n        medicinequantity[_medicineid]-=_quantity;\r\n        MedicineQuantityinPharmacy[msg.sender][_medicineid]+=_quantity;\r\n        if(PayManufacturer[_medicineid].send(msg.value))\r\n            return true;\r\n        return false;\r\n    }\r\n\r\n}",
  "sourcePath": "C:\\Users\\ADMIN\\Documents\\7__Blockchain\\bc - Pharmaceutical Supply Chain\\contracts\\Supplychain.sol",
  "compiler": {
    "name": "solc",
    "version": "0.5.16+commit.9c3226ce.Emscripten.clang"
  },
  "schemaVersion": "3.4.3",
  "updatedAt": "2021-12-02T06:54:17.703Z",
  "networkType": "ethereum",
  "devdoc": {
    "methods": {}
  },
  "userdoc": {
    "methods": {
      "orderRawmaterials(uint256,uint256)": {
        "notice": "***"
      },
      "registerSupplier()": {
        "notice": "***"
      },
      "returnAllSuppliers()": {
        "notice": "***"
      },
      "returnRawmaterialOwner(uint256)": {
        "notice": "***"
      },
      "returnRawmaterialsforMedicines(uint256)": {
        "notice": "***"
      },
      "returnRawmaterialsprovidedbySupplier(address)": {
        "notice": "***"
      },
      "returnspecificRawmaterials(uint256)": {
        "notice": "***"
      }
    }
  }
}